:0400000002001132B7
:03000B0002017D72
:03006A0002000E83
:03000E0002006D80
:20006D0075415575425075B10075B204C2B2753B00753D00C2041201ECE4F53FF540E53F04
:20008D002441F9E7FF600F8F821201E0053FE4B53FEC054080E810030302016A85223CE59C
:2000AD003B24FC500302016AE53B75F003A49000BF730200CB02012502013302014A74A09E
:2000CD00B53C05053B02016A7443B53C10D2B2A2B2E4332430F5821201E002016A744FB526
:2000ED003C10C2B2A2B2E4332430F5821201E002016A7454B53C0FB2B2A2B2E4332430F5BD
:20010D00821201E080577453B53C52A2B2E4332430F5821201E080457401B53C04053B8064
:20012D003C753B0080377401B53C028004E53C7007053B853C3D8025753B00802074A2B58D
:20014D003C0B7401B53D06D2B2D204800D74A1B53C08E53D7004C2B2D204753B0010040342
:20016D000200A3A2B2E433F5821201E00200A322C0E0C0D0300120D52628752603D52809E9
:20018D00852422C201D2038019E524C313F52430B010432480800B20B008D201752604753D
:2001AD002809D52529752503300023E527700AC2B18521237527098015E523C313F523D527
:2001CD002708D2B1C200D2028004A2D792B1D0D0D0E032AF8210020280FB8F21D20022752F
:2001ED009850C2AFC2B9C2A9C28C758900758E80758A80758CFED28CD2A9D2B9D2AFC200BF
:0D020D00C201D202C2037525007526002231
:06004000E4787FF6D8FD14
:20001E007900E94400601B7A0090021E780175A000E493F2A308B8000205A0D9F4DAF27568
:02003E00A0FF21
:200046007800E84400600A790175A000E4F309D8FC7800E84400600C7900900001E4F0A3B8
:04006600D8FCD9FAEF
:0D00110075814212021AE582600302000EA2
:04021A0075820022C7
:00000001FF